{
  "_format": "hh-sol-artifact-1",
  "contractName": "AttendanceToken",
  "sourceName": "contracts/AttendanceToken.sol",
  "abi": [
    {
      "inputs": [],
      "stateMutability": "nonpayable",
      "type": "constructor"
    },
    {
      "inputs": [
        {
          "internalType": "address",
          "name": "",
          "type": "address"
        }
      ],
      "name": "balanceOf",
      "outputs": [
        {
          "internalType": "uint256",
          "name": "",
          "type": "uint256"
        }
      ],
      "stateMutability": "view",
      "type": "function"
    },
    {
      "inputs": [],
      "name": "decimals",
      "outputs": [
        {
          "internalType": "uint8",
          "name": "",
          "type": "uint8"
        }
      ],
      "stateMutability": "view",
      "type": "function"
    },
    {
      "inputs": [],
      "name": "name",
      "outputs": [
        {
          "internalType": "string",
          "name": "",
          "type": "string"
        }
      ],
      "stateMutability": "view",
      "type": "function"
    },
    {
      "inputs": [],
      "name": "symbol",
      "outputs": [
        {
          "internalType": "string",
          "name": "",
          "type": "string"
        }
      ],
      "stateMutability": "view",
      "type": "function"
    },
    {
      "inputs": [],
      "name": "totalSupply",
      "outputs": [
        {
          "internalType": "uint256",
          "name": "",
          "type": "uint256"
        }
      ],
      "stateMutability": "view",
      "type": "function"
    }
  ],
  "bytecode": "0x60806040526040518060400160405280601081526020017f417474656e64616e636520546f6b656e00000000000000000000000000000000815250600090816100489190610382565b506040518060400160405280600381526020017f41544b00000000000000000000000000000000000000000000000000000000008152506001908161008d9190610382565b506012600260006101000a81548160ff021916908360ff160217905550600260009054906101000a900460ff1660ff16600a6100c991906105b6565b620f42406100d79190610601565b6003553480156100e657600080fd5b50600354600460003373ffffffffffffffffffffffffffffffffffffffff1673ffffffffffffffffffffffffffffffffffffffff16815260200190815260200160002081905550610643565b600081519050919050565b7f4e487b7100000000000000000000000000000000000000000000000000000000600052604160045260246000fd5b7f4e487b7100000000000000000000000000000000000000000000000000000000600052602260045260246000fd5b600060028204905060018216806101b357607f821691505b6020821081036101c6576101c561016c565b5b50919050565b60008190508160005260206000209050919050565b60006020601f8301049050919050565b600082821b905092915050565b60006008830261022e7fffffffffffffffffffffffffffffffffffffffffffffffffffffffffffffffff826101f1565b61023886836101f1565b95508019841693508086168417925050509392505050565b6000819050919050565b6000819050919050565b600061027f61027a61027584610250565b61025a565b610250565b9050919050565b6000819050919050565b61029983610264565b6102ad6102a582610286565b8484546101fe565b825550505050565b600090565b6102c26102b5565b6102cd818484610290565b505050565b5b818110156102f1576102e66000826102ba565b6001810190506102d3565b5050565b601f82111561033657610307816101cc565b610310846101e1565b8101602085101561031f578190505b61033361032b856101e1565b8301826102d2565b50505b505050565b600082821c905092915050565b60006103596000198460080261033b565b1980831691505092915050565b60006103728383610348565b9150826002028217905092915050565b61038b82610132565b67ffffffffffffffff8111156103a4576103a361013d565b5b6103ae825461019b565b6103b98282856102f5565b600060209050601f8311600181146103ec57600084156103da578287015190505b6103e48582610366565b86555061044c565b601f1984166103fa866101cc565b60005b82811015610422578489015182556001820191506020850194506020810190506103fd565b8683101561043f578489015161043b601f891682610348565b8355505b6001600288020188555050505b505050505050565b7f4e487b7100000000000000000000000000000000000000000000000000000000600052601160045260246000fd5b60008160011c9050919050565b6000808291508390505b60018511156104da578086048111156104b6576104b5610454565b5b60018516156104c55780820291505b80810290506104d385610483565b945061049a565b94509492505050565b6000826104f357600190506105af565b8161050157600090506105af565b8160018114610517576002811461052157610550565b60019150506105af565b60ff84111561053357610532610454565b5b8360020a91508482111561054a57610549610454565b5b506105af565b5060208310610133831016604e8410600b84101617156105855782820a9050838111156105805761057f610454565b5b6105af565b6105928484846001610490565b925090508184048111156105a9576105a8610454565b5b81810290505b9392505050565b60006105c182610250565b91506105cc83610250565b92506105f97fffffffffffffffffffffffffffffffffffffffffffffffffffffffffffffffff84846104e3565b905092915050565b600061060c82610250565b915061061783610250565b925082820261062581610250565b9150828204841483151761063c5761063b610454565b5b5092915050565b610494806106526000396000f3fe608060405234801561001057600080fd5b50600436106100575760003560e01c806306fdde031461005c57806318160ddd1461007a578063313ce5671461009857806370a08231146100b657806395d89b41146100e6575b600080fd5b610064610104565b60405161007191906102e1565b60405180910390f35b610082610192565b60405161008f919061031c565b60405180910390f35b6100a0610198565b6040516100ad9190610353565b60405180910390f35b6100d060048036038101906100cb91906103d1565b6101ab565b6040516100dd919061031c565b60405180910390f35b6100ee6101c3565b6040516100fb91906102e1565b60405180910390f35b600080546101119061042d565b80601f016020809104026020016040519081016040528092919081815260200182805461013d9061042d565b801561018a5780601f1061015f5761010080835404028352916020019161018a565b820191906000526020600020905b81548152906001019060200180831161016d57829003601f168201915b505050505081565b60035481565b600260009054906101000a900460ff1681565b60046020528060005260406000206000915090505481565b600180546101d09061042d565b80601f01602080910402602001604051908101604052809291908181526020018280546101fc9061042d565b80156102495780601f1061021e57610100808354040283529160200191610249565b820191906000526020600020905b81548152906001019060200180831161022c57829003601f168201915b505050505081565b600081519050919050565b600082825260208201905092915050565b60005b8381101561028b578082015181840152602081019050610270565b60008484015250505050565b6000601f19601f8301169050919050565b60006102b382610251565b6102bd818561025c565b93506102cd81856020860161026d565b6102d681610297565b840191505092915050565b600060208201905081810360008301526102fb81846102a8565b905092915050565b6000819050919050565b61031681610303565b82525050565b6000602082019050610331600083018461030d565b92915050565b600060ff82169050919050565b61034d81610337565b82525050565b60006020820190506103686000830184610344565b92915050565b600080fd5b600073ffffffffffffffffffffffffffffffffffffffff82169050919050565b600061039e82610373565b9050919050565b6103ae81610393565b81146103b957600080fd5b50565b6000813590506103cb816103a5565b92915050565b6000602082840312156103e7576103e661036e565b5b60006103f5848285016103bc565b91505092915050565b7f4e487b7100000000000000000000000000000000000000000000000000000000600052602260045260246000fd5b6000600282049050600182168061044557607f821691505b602082108103610458576104576103fe565b5b5091905056fea2646970667358221220111390c5e6f79bdfc57e2582ea553032262c69166f2bfc2aa00a9d8903f29f2164736f6c634300081c0033",
  "linkReferences": {},
  "deployedLinkReferences": {}
}